{"abi":[{"type":"constructor","inputs":[{"name":"factory","type":"address","internalType":"address"},{"name":"router","type":"address","internalType":"address"}],"stateMutability":"nonpayable"},{"type":"function","name":"DENOMINATOR","inputs":[],"outputs":[{"name":"","type":"uint256","internalType":"uint256"}],"stateMutability":"view"},{"type":"function","name":"getPoolAddress","inputs":[{"name":"token0","type":"address","internalType":"address"},{"name":"token1","type":"address","internalType":"address"}],"outputs":[{"name":"pool","type":"address","internalType":"address"}],"stateMutability":"view"},{"type":"function","name":"getPriceFromPoolTokens","inputs":[{"name":"token0","type":"address","internalType":"address"},{"name":"token1","type":"address","internalType":"address"}],"outputs":[{"name":"price01","type":"uint256","internalType":"uint256"},{"name":"price10","type":"uint256","internalType":"uint256"},{"name":"symbol0","type":"string","internalType":"string"},{"name":"symbol1","type":"string","internalType":"string"}],"stateMutability":"view"},{"type":"function","name":"getSwapableTokenAmount","inputs":[{"name":"token0","type":"address","internalType":"address"},{"name":"token1","type":"address","internalType":"address"},{"name":"startPrice","type":"uint256","internalType":"uint256"},{"name":"endPrice","type":"uint256","internalType":"uint256"}],"outputs":[{"name":"current","type":"uint256","internalType":"uint256"},{"name":"startReserve","type":"uint256","internalType":"uint256"},{"name":"endReserve","type":"uint256","internalType":"uint256"},{"name":"decimals0","type":"uint256","internalType":"uint256"},{"name":"symbol0","type":"string","internalType":"string"},{"name":"symbol1","type":"string","internalType":"string"}],"stateMutability":"view"},{"type":"function","name":"owner","inputs":[],"outputs":[{"name":"","type":"address","internalType":"address"}],"stateMutability":"view"},{"type":"function","name":"pancakeFactory","inputs":[],"outputs":[{"name":"","type":"address","internalType":"contract IPancakeFactory"}],"stateMutability":"view"},{"type":"function","name":"pancakeRouter","inputs":[],"outputs":[{"name":"","type":"address","internalType":"contract IPancakeRouter02"}],"stateMutability":"view"},{"type":"function","name":"renounceOwnership","inputs":[],"outputs":[],"stateMutability":"nonpayable"},{"type":"function","name":"setFactory","inputs":[{"name":"_factory","type":"address","internalType":"address"}],"outputs":[],"stateMutability":"nonpayable"},{"type":"function","name":"setRouter","inputs":[{"name":"_router","type":"address","internalType":"address"}],"outputs":[],"stateMutability":"nonpayable"},{"type":"function","name":"transferOwnership","inputs":[{"name":"newOwner","type":"address","internalType":"address"}],"outputs":[],"stateMutability":"nonpayable"},{"type":"event","name":"OwnershipTransferred","inputs":[{"name":"previousOwner","type":"address","indexed":true,"internalType":"address"},{"name":"newOwner","type":"address","indexed":true,"internalType":"address"}],"anonymous":false},{"type":"error","name":"OwnableInvalidOwner","inputs":[{"name":"owner","type":"address","internalType":"address"}]},{"type":"error","name":"OwnableUnauthorizedAccount","inputs":[{"name":"account","type":"address","internalType":"address"}]}],"bytecode":{"object":"0x60806040526305f5e10060015534801561001857600080fd5b5060405161134538038061134583398101604081905261003791610104565b338061005d57604051631e4fbdf760e01b81526000600482015260240160405180910390fd5b61006681610098565b50600280546001600160a01b039384166001600160a01b03199182161790915560038054929093169116179055610137565b600080546001600160a01b038381166001600160a01b0319831681178455604051919092169283917f8be0079c531659141344cd1fd0a4f28419497f9722a3daafe3b4186f6b6457e09190a35050565b80516001600160a01b03811681146100ff57600080fd5b919050565b6000806040838503121561011757600080fd5b610120836100e8565b915061012e602084016100e8565b90509250929050565b6111ff806101466000396000f3fe608060405234801561001057600080fd5b50600436106100a95760003560e01c8063a182416311610071578063a182416314610123578063c0d7865514610146578063c21ebd0714610159578063e0f1c9c51461016c578063ec23b14e1461017f578063f2fde38b146101a457600080fd5b80633fa1e0c8146100ae5780635bb47808146100de578063715018a6146100f35780638da5cb5b146100fb578063918f86741461010c575b600080fd5b6100c16100bc366004610d5b565b6101b7565b6040516001600160a01b0390911681526020015b60405180910390f35b6100f16100ec366004610d94565b61028e565b005b6100f1610308565b6000546001600160a01b03166100c1565b61011560015481565b6040519081526020016100d5565b610136610131366004610d5b565b61031c565b6040516100d59493929190610e01565b6100f1610154366004610d94565b61066d565b6003546100c1906001600160a01b031681565b6002546100c1906001600160a01b031681565b61019261018d366004610e3d565b6106e6565b6040516100d596959493929190610e83565b6100f16101b2366004610d94565b610b13565b6002546000906001600160a01b03166102115760405162461bcd60e51b8152602060048201526017602482015276496e76616c696420666163746f7279206164647265737360481b60448201526064015b60405180910390fd5b60025460405163e6a4390560e01b81526001600160a01b03858116600483015284811660248301529091169063e6a4390590604401602060405180830381865afa158015610263573d6000803e3d6000fd5b505050506040513d601f19601f820116820180604052508101906102879190610ecd565b9392505050565b610296610b51565b6001600160a01b0381166102e65760405162461bcd60e51b8152602060048201526017602482015276496e76616c696420666163746f7279206164647265737360481b6044820152606401610208565b600280546001600160a01b0319166001600160a01b0392909216919091179055565b610310610b51565b61031a6000610b7e565b565b600080606080600061032e87876101b7565b90506001600160a01b0381166103945760405162461bcd60e51b815260206004820152602560248201527f54686520706f6f6c206f66207375636820746f6b656e7320646f65736e277420604482015264195e1a5cdd60da1b6064820152608401610208565b6000876001600160a01b031663313ce5676040518163ffffffff1660e01b8152600401602060405180830381865afa1580156103d4573d6000803e3d6000fd5b505050506040513d601f19601f820116820180604052508101906103f89190610eea565b90506000876001600160a01b031663313ce5676040518163ffffffff1660e01b8152600401602060405180830381865afa15801561043a573d6000803e3d6000fd5b505050506040513d601f19601f8201168201806040525081019061045e9190610eea565b9050886001600160a01b03166395d89b416040518163ffffffff1660e01b8152600401600060405180830381865afa15801561049e573d6000803e3d6000fd5b505050506040513d6000823e601f3d908101601f191682016040526104c69190810190610f19565b9450876001600160a01b03166395d89b416040518163ffffffff1660e01b8152600401600060405180830381865afa158015610506573d6000803e3d6000fd5b505050506040513d6000823e601f3d908101601f1916820160405261052e9190810190610f19565b9350600080846001600160a01b0316630902f1ac6040518163ffffffff1660e01b8152600401606060405180830381865afa158015610571573d6000803e3d6000fd5b505050506040513d601f19601f820116820180604052508101906105959190610fd7565b506001600160701b031691506001600160701b031691506000808b6001600160a01b03168d6001600160a01b0316106105cf5782846105d2565b83835b90925090506105e285600a611123565b6105ec908361112f565b6001546105fa88600a611123565b610604908461112f565b61060e919061112f565b610618919061115c565b9a5061062586600a611123565b61062f908261112f565b60015461063d87600a611123565b610647908561112f565b610651919061112f565b61065b919061115c565b99505050505050505092959194509250565b610675610b51565b6001600160a01b0381166106c45760405162461bcd60e51b8152602060048201526016602482015275496e76616c696420726f75746572206164647265737360501b6044820152606401610208565b600380546001600160a01b0319166001600160a01b0392909216919091179055565b60008080806060806001600160a01b038a166107145760405162461bcd60e51b81526004016102089061117e565b6001600160a01b03891661073a5760405162461bcd60e51b81526004016102089061117e565b60006107468b8b6101b7565b90506001600160a01b0381166107b65760405162461bcd60e51b815260206004820152602f60248201527f52657175657374656420706f6f6c20646f65736e277420657869737420696e2060448201526e07468652070616e63616b657377617608c1b6064820152608401610208565b88158015906107c457508715155b80156107cf57508789105b61081b5760405162461bcd60e51b815260206004820152601e60248201527f50726963652072616e67652076616c7565732061726520696e76616c696400006044820152606401610208565b8a6001600160a01b031663313ce5676040518163ffffffff1660e01b8152600401602060405180830381865afa158015610859573d6000803e3d6000fd5b505050506040513d601f19601f8201168201806040525081019061087d9190610eea565b935060008a6001600160a01b031663313ce5676040518163ffffffff1660e01b8152600401602060405180830381865afa1580156108bf573d6000803e3d6000fd5b505050506040513d601f19601f820116820180604052508101906108e39190610eea565b90508b6001600160a01b03166395d89b416040518163ffffffff1660e01b8152600401600060405180830381865afa158015610923573d6000803e3d6000fd5b505050506040513d6000823e601f3d908101601f1916820160405261094b9190810190610f19565b93508a6001600160a01b03166395d89b416040518163ffffffff1660e01b8152600401600060405180830381865afa15801561098b573d6000803e3d6000fd5b505050506040513d6000823e601f3d908101601f191682016040526109b39190810190610f19565b9250600080836001600160a01b0316630902f1ac6040518163ffffffff1660e01b8152600401606060405180830381865afa1580156109f6573d6000803e3d6000fd5b505050506040513d601f19601f82011682018060405250810190610a1a9190610fd7565b506001600160701b031691506001600160701b031691508c6001600160a01b03168e6001600160a01b031610610a51578082610a54565b81815b5099506000610a63828461112f565b9050610a7084600a611123565b610a7a908e61112f565b610a8589600a611123565b600154610a92908461112f565b610a9c919061112f565b610aa6919061115c565b9950610ab18a610bce565b9950610abe84600a611123565b610ac8908d61112f565b610ad389600a611123565b600154610ae0908461112f565b610aea919061112f565b610af4919061115c565b9850610aff89610bce565b985050505050509499939850945094509450565b610b1b610b51565b6001600160a01b038116610b4557604051631e4fbdf760e01b815260006004820152602401610208565b610b4e81610b7e565b50565b6000546001600160a01b0316331461031a5760405163118cdaa760e01b8152336004820152602401610208565b600080546001600160a01b038381166001600160a01b0319831681178455604051919092169283917f8be0079c531659141344cd1fd0a4f28419497f9722a3daafe3b4186f6b6457e09190a35050565b600081600003610be057506000919050565b50600181600160801b8110610bfa5760409190911b9060801c5b680100000000000000008110610c155760209190911b9060401c5b6401000000008110610c2c5760109190911b9060201c5b620100008110610c415760089190911b9060101c5b6101008110610c555760049190911b9060081c5b60108110610c685760029190911b9060041c5b60048110610c7857600182901b91505b6001828481610c8957610c89611146565b048301901c91506001828481610ca157610ca1611146565b048301901c91506001828481610cb957610cb9611146565b048301901c91506001828481610cd157610cd1611146565b048301901c91506001828481610ce957610ce9611146565b048301901c91506001828481610d0157610d01611146565b048301901c91506001828481610d1957610d19611146565b048301901c91506000828481610d3157610d31611146565b049050808310610d3f578092505b5050919050565b6001600160a01b0381168114610b4e57600080fd5b60008060408385031215610d6e57600080fd5b8235610d7981610d46565b91506020830135610d8981610d46565b809150509250929050565b600060208284031215610da657600080fd5b813561028781610d46565b60005b83811015610dcc578181015183820152602001610db4565b50506000910152565b60008151808452610ded816020860160208601610db1565b601f01601f19169290920160200192915050565b848152836020820152608060408201526000610e206080830185610dd5565b8281036060840152610e328185610dd5565b979650505050505050565b60008060008060808587031215610e5357600080fd5b8435610e5e81610d46565b93506020850135610e6e81610d46565b93969395505050506040820135916060013590565b86815285602082015284604082015283606082015260c060808201526000610eae60c0830185610dd5565b82810360a0840152610ec08185610dd5565b9998505050505050505050565b600060208284031215610edf57600080fd5b815161028781610d46565b600060208284031215610efc57600080fd5b5051919050565b634e487b7160e01b600052604160045260246000fd5b600060208284031215610f2b57600080fd5b815167ffffffffffffffff80821115610f4357600080fd5b818401915084601f830112610f5757600080fd5b815181811115610f6957610f69610f03565b604051601f8201601f19908116603f01168101908382118183101715610f9157610f91610f03565b81604052828152876020848701011115610faa57600080fd5b610e32836020830160208801610db1565b80516001600160701b0381168114610fd257600080fd5b919050565b600080600060608486031215610fec57600080fd5b610ff584610fbb565b925061100360208501610fbb565b9150604084015163ffffffff8116811461101c57600080fd5b809150509250925092565b634e487b7160e01b600052601160045260246000fd5b600181815b8085111561107857816000190482111561105e5761105e611027565b8085161561106b57918102915b93841c9390800290611042565b509250929050565b60008261108f5750600161111d565b8161109c5750600061111d565b81600181146110b257600281146110bc576110d8565b600191505061111d565b60ff8411156110cd576110cd611027565b50506001821b61111d565b5060208310610133831016604e8410600b84101617156110fb575081810a61111d565b611105838361103d565b806000190482111561111957611119611027565b0290505b92915050565b60006102878383611080565b808202811582820484141761111d5761111d611027565b634e487b7160e01b600052601260045260246000fd5b60008261117957634e487b7160e01b600052601260045260246000fd5b500490565b6020808252602b908201527f5468652061646472657373206f6620746f6b656e2063616e6e6f74206265207a60408201526a65726f206164647265737360a81b60608201526080019056fea2646970667358221220d30f9b1dc2a50f9a85c895f347aa55405ba93789ce5d1b02948a53496fc4133664736f6c63430008190033","linkReferences":{}},"methodIdentifiers":{"DENOMINATOR()":"918f8674","getPoolAddress(address,address)":"3fa1e0c8","getPriceFromPoolTokens(address,address)":"a1824163","getSwapableTokenAmount(address,address,uint256,uint256)":"ec23b14e","owner()":"8da5cb5b","pancakeFactory()":"e0f1c9c5","pancakeRouter()":"c21ebd07","renounceOwnership()":"715018a6","setFactory(address)":"5bb47808","setRouter(address)":"c0d78655","transferOwnership(address)":"f2fde38b"},"id":24}