{"abi":[{"type":"constructor","inputs":[{"name":"factory","type":"address","internalType":"address"},{"name":"router","type":"address","internalType":"address"}],"stateMutability":"nonpayable"},{"type":"function","name":"DENOMINATOR","inputs":[],"outputs":[{"name":"","type":"uint256","internalType":"uint256"}],"stateMutability":"view"},{"type":"function","name":"getPoolAddress","inputs":[{"name":"token0","type":"address","internalType":"address"},{"name":"token1","type":"address","internalType":"address"}],"outputs":[{"name":"pool","type":"address","internalType":"address"}],"stateMutability":"view"},{"type":"function","name":"getPriceFromPoolTokens","inputs":[{"name":"pool","type":"address","internalType":"address"}],"outputs":[{"name":"price01","type":"uint256","internalType":"uint256"},{"name":"price10","type":"uint256","internalType":"uint256"},{"name":"symbol0","type":"string","internalType":"string"},{"name":"symbol1","type":"string","internalType":"string"}],"stateMutability":"view"},{"type":"function","name":"getSwapableTokenAmount","inputs":[{"name":"pool","type":"address","internalType":"address"},{"name":"startPrice","type":"uint256","internalType":"uint256"},{"name":"endPrice","type":"uint256","internalType":"uint256"},{"name":"rangeType","type":"uint8","internalType":"uint8"}],"outputs":[{"name":"current","type":"uint256","internalType":"uint256"},{"name":"startReserve","type":"uint256","internalType":"uint256"},{"name":"endReserve","type":"uint256","internalType":"uint256"},{"name":"decimals0","type":"uint256","internalType":"uint256"},{"name":"symbol0","type":"string","internalType":"string"},{"name":"symbol1","type":"string","internalType":"string"}],"stateMutability":"view"},{"type":"function","name":"owner","inputs":[],"outputs":[{"name":"","type":"address","internalType":"address"}],"stateMutability":"view"},{"type":"function","name":"pancakeFactory","inputs":[],"outputs":[{"name":"","type":"address","internalType":"contract IPancakeFactory"}],"stateMutability":"view"},{"type":"function","name":"pancakeRouter","inputs":[],"outputs":[{"name":"","type":"address","internalType":"contract IPancakeRouter02"}],"stateMutability":"view"},{"type":"function","name":"renounceOwnership","inputs":[],"outputs":[],"stateMutability":"nonpayable"},{"type":"function","name":"setFactory","inputs":[{"name":"_factory","type":"address","internalType":"address"}],"outputs":[],"stateMutability":"nonpayable"},{"type":"function","name":"setRouter","inputs":[{"name":"_router","type":"address","internalType":"address"}],"outputs":[],"stateMutability":"nonpayable"},{"type":"function","name":"transferOwnership","inputs":[{"name":"newOwner","type":"address","internalType":"address"}],"outputs":[],"stateMutability":"nonpayable"},{"type":"event","name":"OwnershipTransferred","inputs":[{"name":"previousOwner","type":"address","indexed":true,"internalType":"address"},{"name":"newOwner","type":"address","indexed":true,"internalType":"address"}],"anonymous":false},{"type":"error","name":"OwnableInvalidOwner","inputs":[{"name":"owner","type":"address","internalType":"address"}]},{"type":"error","name":"OwnableUnauthorizedAccount","inputs":[{"name":"account","type":"address","internalType":"address"}]}],"bytecode":{"object":"0x60806040526305f5e10060015534801561001857600080fd5b506040516113f63803806113f683398101604081905261003791610104565b338061005d57604051631e4fbdf760e01b81526000600482015260240160405180910390fd5b61006681610098565b50600280546001600160a01b039384166001600160a01b03199182161790915560038054929093169116179055610137565b600080546001600160a01b038381166001600160a01b0319831681178455604051919092169283917f8be0079c531659141344cd1fd0a4f28419497f9722a3daafe3b4186f6b6457e09190a35050565b80516001600160a01b03811681146100ff57600080fd5b919050565b6000806040838503121561011757600080fd5b610120836100e8565b915061012e602084016100e8565b90509250929050565b6112b0806101466000396000f3fe608060405234801561001057600080fd5b50600436106100a95760003560e01c8063918f867411610071578063918f867414610131578063c0d7865514610148578063c21ebd071461015b578063cdef34071461016e578063e0f1c9c514610191578063f2fde38b146101a457600080fd5b80633fa1e0c8146100ae5780634f86184c146100de5780635bb4780814610103578063715018a6146101185780638da5cb5b14610120575b600080fd5b6100c16100bc366004610e49565b6101b7565b6040516001600160a01b0390911681526020015b60405180910390f35b6100f16100ec366004610e82565b61028e565b6040516100d596959493929190610f22565b610116610111366004610f6c565b61071f565b005b610116610799565b6000546001600160a01b03166100c1565b61013a60015481565b6040519081526020016100d5565b610116610156366004610f6c565b6107ad565b6003546100c1906001600160a01b031681565b61018161017c366004610f6c565b610826565b6040516100d59493929190610f89565b6002546100c1906001600160a01b031681565b6101166101b2366004610f6c565b610c01565b6002546000906001600160a01b03166102115760405162461bcd60e51b8152602060048201526017602482015276496e76616c696420666163746f7279206164647265737360481b60448201526064015b60405180910390fd5b60025460405163e6a4390560e01b81526001600160a01b03858116600483015284811660248301529091169063e6a4390590604401602060405180830381865afa158015610263573d6000803e3d6000fd5b505050506040513d601f19601f820116820180604052508101906102879190610fc5565b9392505050565b60008080806060806001600160a01b038a166103045760405162461bcd60e51b815260206004820152602f60248201527f52657175657374656420706f6f6c20646f65736e277420657869737420696e2060448201526e07468652070616e63616b657377617608c1b6064820152608401610208565b60008a6001600160a01b0316630dfe16816040518163ffffffff1660e01b8152600401602060405180830381865afa158015610344573d6000803e3d6000fd5b505050506040513d601f19601f820116820180604052508101906103689190610fc5565b905060008b6001600160a01b031663d21220a76040518163ffffffff1660e01b8152600401602060405180830381865afa1580156103aa573d6000803e3d6000fd5b505050506040513d601f19601f820116820180604052508101906103ce9190610fc5565b90508a158015906103de57508915155b80156103e95750898b105b6104355760405162461bcd60e51b815260206004820152601e60248201527f50726963652072616e67652076616c7565732061726520696e76616c696400006044820152606401610208565b816001600160a01b031663313ce5676040518163ffffffff1660e01b8152600401602060405180830381865afa158015610473573d6000803e3d6000fd5b505050506040513d601f19601f820116820180604052508101906104979190610fe2565b94506000816001600160a01b031663313ce5676040518163ffffffff1660e01b8152600401602060405180830381865afa1580156104d9573d6000803e3d6000fd5b505050506040513d601f19601f820116820180604052508101906104fd9190610fe2565b9050826001600160a01b03166395d89b416040518163ffffffff1660e01b8152600401600060405180830381865afa15801561053d573d6000803e3d6000fd5b505050506040513d6000823e601f3d908101601f191682016040526105659190810190611011565b9450816001600160a01b03166395d89b416040518163ffffffff1660e01b8152600401600060405180830381865afa1580156105a5573d6000803e3d6000fd5b505050506040513d6000823e601f3d908101601f191682016040526105cd9190810190611011565b93506000808e6001600160a01b0316630902f1ac6040518163ffffffff1660e01b8152600401606060405180830381865afa158015610610573d6000803e3d6000fd5b505050506040513d601f19601f8201168201806040525081019061063491906110cf565b506001600160701b03918216935016905060006106518284611135565b90508c60ff1660000361066657829b5061066f565b909a509196918a905b61067a84600a611236565b8f6106859190611135565b6106908a600a611236565b60015461069d9084611135565b6106a79190611135565b6106b19190611258565b9a506106bc8b610c3f565b9a506106c984600a611236565b6106d3908f611135565b6106de8a600a611236565b6001546106eb9084611135565b6106f59190611135565b6106ff9190611258565b995061070a8a610c3f565b99505050505050509499939850945094509450565b610727610db7565b6001600160a01b0381166107775760405162461bcd60e51b8152602060048201526017602482015276496e76616c696420666163746f7279206164647265737360481b6044820152606401610208565b600280546001600160a01b0319166001600160a01b0392909216919091179055565b6107a1610db7565b6107ab6000610de4565b565b6107b5610db7565b6001600160a01b0381166108045760405162461bcd60e51b8152602060048201526016602482015275496e76616c696420726f75746572206164647265737360501b6044820152606401610208565b600380546001600160a01b0319166001600160a01b0392909216919091179055565b6000806060806001600160a01b0385166108905760405162461bcd60e51b815260206004820152602560248201527f54686520706f6f6c206f66207375636820746f6b656e7320646f65736e277420604482015264195e1a5cdd60da1b6064820152608401610208565b6000856001600160a01b0316630dfe16816040518163ffffffff1660e01b8152600401602060405180830381865afa1580156108d0573d6000803e3d6000fd5b505050506040513d601f19601f820116820180604052508101906108f49190610fc5565b90506000866001600160a01b031663d21220a76040518163ffffffff1660e01b8152600401602060405180830381865afa158015610936573d6000803e3d6000fd5b505050506040513d601f19601f8201168201806040525081019061095a9190610fc5565b90506000826001600160a01b031663313ce5676040518163ffffffff1660e01b8152600401602060405180830381865afa15801561099c573d6000803e3d6000fd5b505050506040513d601f19601f820116820180604052508101906109c09190610fe2565b90506000826001600160a01b031663313ce5676040518163ffffffff1660e01b8152600401602060405180830381865afa158015610a02573d6000803e3d6000fd5b505050506040513d601f19601f82011682018060405250810190610a269190610fe2565b9050836001600160a01b03166395d89b416040518163ffffffff1660e01b8152600401600060405180830381865afa158015610a66573d6000803e3d6000fd5b505050506040513d6000823e601f3d908101601f19168201604052610a8e9190810190611011565b9550826001600160a01b03166395d89b416040518163ffffffff1660e01b8152600401600060405180830381865afa158015610ace573d6000803e3d6000fd5b505050506040513d6000823e601f3d908101601f19168201604052610af69190810190611011565b94506000808a6001600160a01b0316630902f1ac6040518163ffffffff1660e01b8152600401606060405180830381865afa158015610b39573d6000803e3d6000fd5b505050506040513d601f19601f82011682018060405250810190610b5d91906110cf565b506001600160701b039182169350169050610b7983600a611236565b610b839083611135565b600154610b9186600a611236565b610b9b9084611135565b610ba59190611135565b610baf9190611258565b9950610bbc84600a611236565b610bc69082611135565b600154610bd485600a611236565b610bde9085611135565b610be89190611135565b610bf29190611258565b98505050505050509193509193565b610c09610db7565b6001600160a01b038116610c3357604051631e4fbdf760e01b815260006004820152602401610208565b610c3c81610de4565b50565b600081600003610c5157506000919050565b50600181600160801b8110610c6b5760409190911b9060801c5b680100000000000000008110610c865760209190911b9060401c5b6401000000008110610c9d5760109190911b9060201c5b620100008110610cb25760089190911b9060101c5b6101008110610cc65760049190911b9060081c5b60108110610cd95760029190911b9060041c5b60048110610ce957600182901b91505b6001828481610cfa57610cfa611242565b048301901c91506001828481610d1257610d12611242565b048301901c91506001828481610d2a57610d2a611242565b048301901c91506001828481610d4257610d42611242565b048301901c91506001828481610d5a57610d5a611242565b048301901c91506001828481610d7257610d72611242565b048301901c91506001828481610d8a57610d8a611242565b048301901c91506000828481610da257610da2611242565b049050808310610db0578092505b5050919050565b6000546001600160a01b031633146107ab5760405163118cdaa760e01b8152336004820152602401610208565b600080546001600160a01b038381166001600160a01b0319831681178455604051919092169283917f8be0079c531659141344cd1fd0a4f28419497f9722a3daafe3b4186f6b6457e09190a35050565b6001600160a01b0381168114610c3c57600080fd5b60008060408385031215610e5c57600080fd5b8235610e6781610e34565b91506020830135610e7781610e34565b809150509250929050565b60008060008060808587031215610e9857600080fd5b8435610ea381610e34565b93506020850135925060408501359150606085013560ff81168114610ec757600080fd5b939692955090935050565b60005b83811015610eed578181015183820152602001610ed5565b50506000910152565b60008151808452610f0e816020860160208601610ed2565b601f01601f19169290920160200192915050565b86815285602082015284604082015283606082015260c060808201526000610f4d60c0830185610ef6565b82810360a0840152610f5f8185610ef6565b9998505050505050505050565b600060208284031215610f7e57600080fd5b813561028781610e34565b848152836020820152608060408201526000610fa86080830185610ef6565b8281036060840152610fba8185610ef6565b979650505050505050565b600060208284031215610fd757600080fd5b815161028781610e34565b600060208284031215610ff457600080fd5b5051919050565b634e487b7160e01b600052604160045260246000fd5b60006020828403121561102357600080fd5b815167ffffffffffffffff8082111561103b57600080fd5b818401915084601f83011261104f57600080fd5b81518181111561106157611061610ffb565b604051601f8201601f19908116603f0116810190838211818310171561108957611089610ffb565b816040528281528760208487010111156110a257600080fd5b610fba836020830160208801610ed2565b80516001600160701b03811681146110ca57600080fd5b919050565b6000806000606084860312156110e457600080fd5b6110ed846110b3565b92506110fb602085016110b3565b9150604084015163ffffffff8116811461111457600080fd5b809150509250925092565b634e487b7160e01b600052601160045260246000fd5b808202811582820484141761114c5761114c61111f565b92915050565b600181815b8085111561118d5781600019048211156111735761117361111f565b8085161561118057918102915b93841c9390800290611157565b509250929050565b6000826111a45750600161114c565b816111b15750600061114c565b81600181146111c757600281146111d1576111ed565b600191505061114c565b60ff8411156111e2576111e261111f565b50506001821b61114c565b5060208310610133831016604e8410600b8410161715611210575081810a61114c565b61121a8383611152565b806000190482111561122e5761122e61111f565b029392505050565b60006102878383611195565b634e487b7160e01b600052601260045260246000fd5b60008261127557634e487b7160e01b600052601260045260246000fd5b50049056fea26469706673582212205ffefc9eceb8b8dda201b855bf09bb265606c6b09e1242741f989d1c73faf6cd64736f6c63430008190033","linkReferences":{}},"methodIdentifiers":{"DENOMINATOR()":"918f8674","getPoolAddress(address,address)":"3fa1e0c8","getPriceFromPoolTokens(address)":"cdef3407","getSwapableTokenAmount(address,uint256,uint256,uint8)":"4f86184c","owner()":"8da5cb5b","pancakeFactory()":"e0f1c9c5","pancakeRouter()":"c21ebd07","renounceOwnership()":"715018a6","setFactory(address)":"5bb47808","setRouter(address)":"c0d78655","transferOwnership(address)":"f2fde38b"},"id":26}