{"abi":[{"type":"constructor","inputs":[{"name":"factory","type":"address","internalType":"address"},{"name":"router","type":"address","internalType":"address"}],"stateMutability":"nonpayable"},{"type":"function","name":"DENOMINATOR","inputs":[],"outputs":[{"name":"","type":"uint256","internalType":"uint256"}],"stateMutability":"view"},{"type":"function","name":"getPoolInfo","inputs":[{"name":"pool","type":"address","internalType":"address"}],"outputs":[{"name":"reserve0","type":"uint256","internalType":"uint256"},{"name":"reserve1","type":"uint256","internalType":"uint256"},{"name":"decimals0","type":"uint256","internalType":"uint256"},{"name":"decimals1","type":"uint256","internalType":"uint256"},{"name":"symbol0","type":"string","internalType":"string"},{"name":"symbol1","type":"string","internalType":"string"}],"stateMutability":"view"},{"type":"function","name":"getPriceFromPoolTokens","inputs":[{"name":"pool","type":"address","internalType":"address"}],"outputs":[{"name":"price01","type":"uint256","internalType":"uint256"},{"name":"price10","type":"uint256","internalType":"uint256"},{"name":"symbol0","type":"string","internalType":"string"},{"name":"symbol1","type":"string","internalType":"string"}],"stateMutability":"view"},{"type":"function","name":"owner","inputs":[],"outputs":[{"name":"","type":"address","internalType":"address"}],"stateMutability":"view"},{"type":"function","name":"pancakeFactory","inputs":[],"outputs":[{"name":"","type":"address","internalType":"contract IPancakeFactory"}],"stateMutability":"view"},{"type":"function","name":"pancakeRouter","inputs":[],"outputs":[{"name":"","type":"address","internalType":"contract IPancakeRouter02"}],"stateMutability":"view"},{"type":"function","name":"renounceOwnership","inputs":[],"outputs":[],"stateMutability":"nonpayable"},{"type":"function","name":"setFactory","inputs":[{"name":"_factory","type":"address","internalType":"address"}],"outputs":[],"stateMutability":"nonpayable"},{"type":"function","name":"setRouter","inputs":[{"name":"_router","type":"address","internalType":"address"}],"outputs":[],"stateMutability":"nonpayable"},{"type":"function","name":"transferOwnership","inputs":[{"name":"newOwner","type":"address","internalType":"address"}],"outputs":[],"stateMutability":"nonpayable"},{"type":"event","name":"OwnershipTransferred","inputs":[{"name":"previousOwner","type":"address","indexed":true,"internalType":"address"},{"name":"newOwner","type":"address","indexed":true,"internalType":"address"}],"anonymous":false},{"type":"error","name":"OwnableInvalidOwner","inputs":[{"name":"owner","type":"address","internalType":"address"}]},{"type":"error","name":"OwnableUnauthorizedAccount","inputs":[{"name":"account","type":"address","internalType":"address"}]}],"bytecode":{"object":"0x608060405266038d7ea4c6800060015534801561001b57600080fd5b50604051610fdc380380610fdc83398101604081905261003a91610107565b338061006057604051631e4fbdf760e01b81526000600482015260240160405180910390fd5b6100698161009b565b50600280546001600160a01b039384166001600160a01b0319918216179091556003805492909316911617905561013a565b600080546001600160a01b038381166001600160a01b0319831681178455604051919092169283917f8be0079c531659141344cd1fd0a4f28419497f9722a3daafe3b4186f6b6457e09190a35050565b80516001600160a01b038116811461010257600080fd5b919050565b6000806040838503121561011a57600080fd5b610123836100eb565b9150610131602084016100eb565b90509250929050565b610e93806101496000396000f3fe608060405234801561001057600080fd5b506004361061009e5760003560e01c8063c0d7865511610066578063c0d786551461012a578063c21ebd071461013d578063cdef340714610150578063e0f1c9c514610173578063f2fde38b1461018657600080fd5b806306bfa938146100a35780635bb47808146100d1578063715018a6146100e65780638da5cb5b146100ee578063918f867414610113575b600080fd5b6100b66100b1366004610ab2565b610199565b6040516100c896959493929190610b26565b60405180910390f35b6100e46100df366004610ab2565b6104fa565b005b6100e461057a565b6000546001600160a01b03165b6040516001600160a01b0390911681526020016100c8565b61011c60015481565b6040519081526020016100c8565b6100e4610138366004610ab2565b61058e565b6003546100fb906001600160a01b031681565b61016361015e366004610ab2565b610607565b6040516100c89493929190610b70565b6002546100fb906001600160a01b031681565b6100e4610194366004610ab2565b6109e2565b60008080806060806001600160a01b0387166102145760405162461bcd60e51b815260206004820152602f60248201527f52657175657374656420706f6f6c20646f65736e277420657869737420696e2060448201526e07468652070616e63616b657377617608c1b60648201526084015b60405180910390fd5b6000876001600160a01b0316630dfe16816040518163ffffffff1660e01b8152600401602060405180830381865afa158015610254573d6000803e3d6000fd5b505050506040513d601f19601f820116820180604052508101906102789190610bac565b90506000886001600160a01b031663d21220a76040518163ffffffff1660e01b8152600401602060405180830381865afa1580156102ba573d6000803e3d6000fd5b505050506040513d601f19601f820116820180604052508101906102de9190610bac565b9050816001600160a01b031663313ce5676040518163ffffffff1660e01b8152600401602060405180830381865afa15801561031e573d6000803e3d6000fd5b505050506040513d601f19601f820116820180604052508101906103429190610bc9565b9550806001600160a01b031663313ce5676040518163ffffffff1660e01b8152600401602060405180830381865afa158015610382573d6000803e3d6000fd5b505050506040513d601f19601f820116820180604052508101906103a69190610bc9565b9450816001600160a01b03166395d89b416040518163ffffffff1660e01b8152600401600060405180830381865afa1580156103e6573d6000803e3d6000fd5b505050506040513d6000823e601f3d908101601f1916820160405261040e9190810190610bf8565b9350806001600160a01b03166395d89b416040518163ffffffff1660e01b8152600401600060405180830381865afa15801561044e573d6000803e3d6000fd5b505050506040513d6000823e601f3d908101601f191682016040526104769190810190610bf8565b9250886001600160a01b0316630902f1ac6040518163ffffffff1660e01b8152600401606060405180830381865afa1580156104b6573d6000803e3d6000fd5b505050506040513d601f19601f820116820180604052508101906104da9190610cc9565b506001600160701b039182169b9116995095975093955091939092509050565b610502610a20565b6001600160a01b0381166105585760405162461bcd60e51b815260206004820152601760248201527f496e76616c696420666163746f72792061646472657373000000000000000000604482015260640161020b565b600280546001600160a01b0319166001600160a01b0392909216919091179055565b610582610a20565b61058c6000610a4d565b565b610596610a20565b6001600160a01b0381166105e55760405162461bcd60e51b8152602060048201526016602482015275496e76616c696420726f75746572206164647265737360501b604482015260640161020b565b600380546001600160a01b0319166001600160a01b0392909216919091179055565b6000806060806001600160a01b0385166106715760405162461bcd60e51b815260206004820152602560248201527f54686520706f6f6c206f66207375636820746f6b656e7320646f65736e277420604482015264195e1a5cdd60da1b606482015260840161020b565b6000856001600160a01b0316630dfe16816040518163ffffffff1660e01b8152600401602060405180830381865afa1580156106b1573d6000803e3d6000fd5b505050506040513d601f19601f820116820180604052508101906106d59190610bac565b90506000866001600160a01b031663d21220a76040518163ffffffff1660e01b8152600401602060405180830381865afa158015610717573d6000803e3d6000fd5b505050506040513d601f19601f8201168201806040525081019061073b9190610bac565b90506000826001600160a01b031663313ce5676040518163ffffffff1660e01b8152600401602060405180830381865afa15801561077d573d6000803e3d6000fd5b505050506040513d601f19601f820116820180604052508101906107a19190610bc9565b90506000826001600160a01b031663313ce5676040518163ffffffff1660e01b8152600401602060405180830381865afa1580156107e3573d6000803e3d6000fd5b505050506040513d601f19601f820116820180604052508101906108079190610bc9565b9050836001600160a01b03166395d89b416040518163ffffffff1660e01b8152600401600060405180830381865afa158015610847573d6000803e3d6000fd5b505050506040513d6000823e601f3d908101601f1916820160405261086f9190810190610bf8565b9550826001600160a01b03166395d89b416040518163ffffffff1660e01b8152600401600060405180830381865afa1580156108af573d6000803e3d6000fd5b505050506040513d6000823e601f3d908101601f191682016040526108d79190810190610bf8565b94506000808a6001600160a01b0316630902f1ac6040518163ffffffff1660e01b8152600401606060405180830381865afa15801561091a573d6000803e3d6000fd5b505050506040513d601f19601f8201168201806040525081019061093e9190610cc9565b506001600160701b03918216935016905061095a83600a610e18565b6109649083610e24565b60015461097286600a610e18565b61097c9084610e24565b6109869190610e24565b6109909190610e3b565b995061099d84600a610e18565b6109a79082610e24565b6001546109b585600a610e18565b6109bf9085610e24565b6109c99190610e24565b6109d39190610e3b565b98505050505050509193509193565b6109ea610a20565b6001600160a01b038116610a1457604051631e4fbdf760e01b81526000600482015260240161020b565b610a1d81610a4d565b50565b6000546001600160a01b0316331461058c5760405163118cdaa760e01b815233600482015260240161020b565b600080546001600160a01b038381166001600160a01b0319831681178455604051919092169283917f8be0079c531659141344cd1fd0a4f28419497f9722a3daafe3b4186f6b6457e09190a35050565b6001600160a01b0381168114610a1d57600080fd5b600060208284031215610ac457600080fd5b8135610acf81610a9d565b9392505050565b60005b83811015610af1578181015183820152602001610ad9565b50506000910152565b60008151808452610b12816020860160208601610ad6565b601f01601f19169290920160200192915050565b86815285602082015284604082015283606082015260c060808201526000610b5160c0830185610afa565b82810360a0840152610b638185610afa565b9998505050505050505050565b848152836020820152608060408201526000610b8f6080830185610afa565b8281036060840152610ba18185610afa565b979650505050505050565b600060208284031215610bbe57600080fd5b8151610acf81610a9d565b600060208284031215610bdb57600080fd5b5051919050565b634e487b7160e01b600052604160045260246000fd5b600060208284031215610c0a57600080fd5b815167ffffffffffffffff811115610c2157600080fd5b8201601f81018413610c3257600080fd5b805167ffffffffffffffff811115610c4c57610c4c610be2565b604051601f8201601f19908116603f0116810167ffffffffffffffff81118282101715610c7b57610c7b610be2565b604052818152828201602001861015610c9357600080fd5b610ca4826020830160208601610ad6565b95945050505050565b80516001600160701b0381168114610cc457600080fd5b919050565b600080600060608486031215610cde57600080fd5b610ce784610cad565b9250610cf560208501610cad565b9150604084015163ffffffff81168114610d0e57600080fd5b809150509250925092565b634e487b7160e01b600052601160045260246000fd5b6001815b6001841115610d6a57808504811115610d4e57610d4e610d19565b6001841615610d5c57908102905b60019390931c928002610d33565b935093915050565b600082610d8157506001610e12565b81610d8e57506000610e12565b8160018114610da45760028114610dae57610dca565b6001915050610e12565b60ff841115610dbf57610dbf610d19565b50506001821b610e12565b5060208310610133831016604e8410600b8410161715610ded575081810a610e12565b610dfa6000198484610d2f565b8060001904821115610e0e57610e0e610d19565b0290505b92915050565b6000610acf8383610d72565b8082028115828204841417610e1257610e12610d19565b600082610e5857634e487b7160e01b600052601260045260246000fd5b50049056fea264697066735822122021182e226b0b8d2349da1b6cb8704ff47f213274db91a4513a5c0350ae4550a864736f6c634300081a0033","linkReferences":{}},"methodIdentifiers":{"DENOMINATOR()":"918f8674","getPoolInfo(address)":"06bfa938","getPriceFromPoolTokens(address)":"cdef3407","owner()":"8da5cb5b","pancakeFactory()":"e0f1c9c5","pancakeRouter()":"c21ebd07","renounceOwnership()":"715018a6","setFactory(address)":"5bb47808","setRouter(address)":"c0d78655","transferOwnership(address)":"f2fde38b"},"id":26}