{"abi":[{"type":"constructor","inputs":[{"name":"factory","type":"address","internalType":"address"},{"name":"router","type":"address","internalType":"address"}],"stateMutability":"nonpayable"},{"type":"function","name":"DENOMINATOR","inputs":[],"outputs":[{"name":"","type":"uint256","internalType":"uint256"}],"stateMutability":"view"},{"type":"function","name":"getPoolAddress","inputs":[{"name":"token0","type":"address","internalType":"address"},{"name":"token1","type":"address","internalType":"address"}],"outputs":[{"name":"pool","type":"address","internalType":"address"}],"stateMutability":"view"},{"type":"function","name":"getPriceFromPoolTokens","inputs":[{"name":"pool","type":"address","internalType":"address"}],"outputs":[{"name":"price01","type":"uint256","internalType":"uint256"},{"name":"price10","type":"uint256","internalType":"uint256"},{"name":"symbol0","type":"string","internalType":"string"},{"name":"symbol1","type":"string","internalType":"string"}],"stateMutability":"view"},{"type":"function","name":"getSwapableTokenAmount","inputs":[{"name":"pool","type":"address","internalType":"address"},{"name":"startPrice","type":"uint256","internalType":"uint256"},{"name":"endPrice","type":"uint256","internalType":"uint256"},{"name":"rangeType","type":"uint8","internalType":"uint8"}],"outputs":[{"name":"current","type":"uint256","internalType":"uint256"},{"name":"startReserve","type":"uint256","internalType":"uint256"},{"name":"endReserve","type":"uint256","internalType":"uint256"},{"name":"decimals","type":"uint256","internalType":"uint256"},{"name":"symbol0","type":"string","internalType":"string"},{"name":"symbol1","type":"string","internalType":"string"}],"stateMutability":"view"},{"type":"function","name":"owner","inputs":[],"outputs":[{"name":"","type":"address","internalType":"address"}],"stateMutability":"view"},{"type":"function","name":"pancakeFactory","inputs":[],"outputs":[{"name":"","type":"address","internalType":"contract IPancakeFactory"}],"stateMutability":"view"},{"type":"function","name":"pancakeRouter","inputs":[],"outputs":[{"name":"","type":"address","internalType":"contract IPancakeRouter02"}],"stateMutability":"view"},{"type":"function","name":"renounceOwnership","inputs":[],"outputs":[],"stateMutability":"nonpayable"},{"type":"function","name":"setFactory","inputs":[{"name":"_factory","type":"address","internalType":"address"}],"outputs":[],"stateMutability":"nonpayable"},{"type":"function","name":"setRouter","inputs":[{"name":"_router","type":"address","internalType":"address"}],"outputs":[],"stateMutability":"nonpayable"},{"type":"function","name":"transferOwnership","inputs":[{"name":"newOwner","type":"address","internalType":"address"}],"outputs":[],"stateMutability":"nonpayable"},{"type":"event","name":"OwnershipTransferred","inputs":[{"name":"previousOwner","type":"address","indexed":true,"internalType":"address"},{"name":"newOwner","type":"address","indexed":true,"internalType":"address"}],"anonymous":false},{"type":"error","name":"OwnableInvalidOwner","inputs":[{"name":"owner","type":"address","internalType":"address"}]},{"type":"error","name":"OwnableUnauthorizedAccount","inputs":[{"name":"account","type":"address","internalType":"address"}]}],"bytecode":{"object":"0x60806040526305f5e10060015534801561001857600080fd5b5060405161140138038061140183398101604081905261003791610104565b338061005d57604051631e4fbdf760e01b81526000600482015260240160405180910390fd5b61006681610098565b50600280546001600160a01b039384166001600160a01b03199182161790915560038054929093169116179055610137565b600080546001600160a01b038381166001600160a01b0319831681178455604051919092169283917f8be0079c531659141344cd1fd0a4f28419497f9722a3daafe3b4186f6b6457e09190a35050565b80516001600160a01b03811681146100ff57600080fd5b919050565b6000806040838503121561011757600080fd5b610120836100e8565b915061012e602084016100e8565b90509250929050565b6112bb806101466000396000f3fe608060405234801561001057600080fd5b50600436106100a95760003560e01c8063918f867411610071578063918f867414610131578063c0d7865514610148578063c21ebd071461015b578063cdef34071461016e578063e0f1c9c514610191578063f2fde38b146101a457600080fd5b80633fa1e0c8146100ae5780634f86184c146100de5780635bb4780814610103578063715018a6146101185780638da5cb5b14610120575b600080fd5b6100c16100bc366004610e58565b6101b7565b6040516001600160a01b0390911681526020015b60405180910390f35b6100f16100ec366004610e91565b61028e565b6040516100d596959493929190610f31565b610116610111366004610f7b565b61072e565b005b6101166107a8565b6000546001600160a01b03166100c1565b61013a60015481565b6040519081526020016100d5565b610116610156366004610f7b565b6107bc565b6003546100c1906001600160a01b031681565b61018161017c366004610f7b565b610835565b6040516100d59493929190610f98565b6002546100c1906001600160a01b031681565b6101166101b2366004610f7b565b610c10565b6002546000906001600160a01b03166102115760405162461bcd60e51b8152602060048201526017602482015276496e76616c696420666163746f7279206164647265737360481b60448201526064015b60405180910390fd5b60025460405163e6a4390560e01b81526001600160a01b03858116600483015284811660248301529091169063e6a4390590604401602060405180830381865afa158015610263573d6000803e3d6000fd5b505050506040513d601f19601f820116820180604052508101906102879190610fd4565b9392505050565b60008080806060806001600160a01b038a166103045760405162461bcd60e51b815260206004820152602f60248201527f52657175657374656420706f6f6c20646f65736e277420657869737420696e2060448201526e07468652070616e63616b657377617608c1b6064820152608401610208565b60008a6001600160a01b0316630dfe16816040518163ffffffff1660e01b8152600401602060405180830381865afa158015610344573d6000803e3d6000fd5b505050506040513d601f19601f820116820180604052508101906103689190610fd4565b905060008b6001600160a01b031663d21220a76040518163ffffffff1660e01b8152600401602060405180830381865afa1580156103aa573d6000803e3d6000fd5b505050506040513d601f19601f820116820180604052508101906103ce9190610fd4565b90508a158015906103de57508915155b80156103e95750898b105b6104355760405162461bcd60e51b815260206004820152601e60248201527f50726963652072616e67652076616c7565732061726520696e76616c696400006044820152606401610208565b6000826001600160a01b031663313ce5676040518163ffffffff1660e01b8152600401602060405180830381865afa158015610475573d6000803e3d6000fd5b505050506040513d601f19601f820116820180604052508101906104999190610ff1565b90506000826001600160a01b031663313ce5676040518163ffffffff1660e01b8152600401602060405180830381865afa1580156104db573d6000803e3d6000fd5b505050506040513d601f19601f820116820180604052508101906104ff9190610ff1565b9050836001600160a01b03166395d89b416040518163ffffffff1660e01b8152600401600060405180830381865afa15801561053f573d6000803e3d6000fd5b505050506040513d6000823e601f3d908101601f191682016040526105679190810190611020565b9550826001600160a01b03166395d89b416040518163ffffffff1660e01b8152600401600060405180830381865afa1580156105a7573d6000803e3d6000fd5b505050506040513d6000823e601f3d908101601f191682016040526105cf9190810190611020565b94506000808f6001600160a01b0316630902f1ac6040518163ffffffff1660e01b8152600401606060405180830381865afa158015610612573d6000803e3d6000fd5b505050506040513d601f19601f8201168201806040525081019061063691906110de565b506001600160701b031691506001600160701b031691508c60ff1660000361066057819b5061066a565b9a509096508691908a5b61067583600a61122a565b8f6106809190611236565b61068b85600a61122a565b6001546106988486611236565b6106a29190611236565b6106ac9190611236565b6106b69190611263565b9a506106c18b610c4e565b9a506106ce83600a61122a565b6106d8908f611236565b6106e385600a61122a565b6001546106f08486611236565b6106fa9190611236565b6107049190611236565b61070e9190611263565b99506107198a610c4e565b99505050505050509499939850945094509450565b610736610dc6565b6001600160a01b0381166107865760405162461bcd60e51b8152602060048201526017602482015276496e76616c696420666163746f7279206164647265737360481b6044820152606401610208565b600280546001600160a01b0319166001600160a01b0392909216919091179055565b6107b0610dc6565b6107ba6000610df3565b565b6107c4610dc6565b6001600160a01b0381166108135760405162461bcd60e51b8152602060048201526016602482015275496e76616c696420726f75746572206164647265737360501b6044820152606401610208565b600380546001600160a01b0319166001600160a01b0392909216919091179055565b6000806060806001600160a01b03851661089f5760405162461bcd60e51b815260206004820152602560248201527f54686520706f6f6c206f66207375636820746f6b656e7320646f65736e277420604482015264195e1a5cdd60da1b6064820152608401610208565b6000856001600160a01b0316630dfe16816040518163ffffffff1660e01b8152600401602060405180830381865afa1580156108df573d6000803e3d6000fd5b505050506040513d601f19601f820116820180604052508101906109039190610fd4565b90506000866001600160a01b031663d21220a76040518163ffffffff1660e01b8152600401602060405180830381865afa158015610945573d6000803e3d6000fd5b505050506040513d601f19601f820116820180604052508101906109699190610fd4565b90506000826001600160a01b031663313ce5676040518163ffffffff1660e01b8152600401602060405180830381865afa1580156109ab573d6000803e3d6000fd5b505050506040513d601f19601f820116820180604052508101906109cf9190610ff1565b90506000826001600160a01b031663313ce5676040518163ffffffff1660e01b8152600401602060405180830381865afa158015610a11573d6000803e3d6000fd5b505050506040513d601f19601f82011682018060405250810190610a359190610ff1565b9050836001600160a01b03166395d89b416040518163ffffffff1660e01b8152600401600060405180830381865afa158015610a75573d6000803e3d6000fd5b505050506040513d6000823e601f3d908101601f19168201604052610a9d9190810190611020565b9550826001600160a01b03166395d89b416040518163ffffffff1660e01b8152600401600060405180830381865afa158015610add573d6000803e3d6000fd5b505050506040513d6000823e601f3d908101601f19168201604052610b059190810190611020565b94506000808a6001600160a01b0316630902f1ac6040518163ffffffff1660e01b8152600401606060405180830381865afa158015610b48573d6000803e3d6000fd5b505050506040513d601f19601f82011682018060405250810190610b6c91906110de565b506001600160701b039182169350169050610b8883600a61122a565b610b929083611236565b600154610ba086600a61122a565b610baa9084611236565b610bb49190611236565b610bbe9190611263565b9950610bcb84600a61122a565b610bd59082611236565b600154610be385600a61122a565b610bed9085611236565b610bf79190611236565b610c019190611263565b98505050505050509193509193565b610c18610dc6565b6001600160a01b038116610c4257604051631e4fbdf760e01b815260006004820152602401610208565b610c4b81610df3565b50565b600081600003610c6057506000919050565b50600181600160801b8110610c7a5760409190911b9060801c5b680100000000000000008110610c955760209190911b9060401c5b6401000000008110610cac5760109190911b9060201c5b620100008110610cc15760089190911b9060101c5b6101008110610cd55760049190911b9060081c5b60108110610ce85760029190911b9060041c5b60048110610cf857600182901b91505b6001828481610d0957610d0961124d565b048301901c91506001828481610d2157610d2161124d565b048301901c91506001828481610d3957610d3961124d565b048301901c91506001828481610d5157610d5161124d565b048301901c91506001828481610d6957610d6961124d565b048301901c91506001828481610d8157610d8161124d565b048301901c91506001828481610d9957610d9961124d565b048301901c91506000828481610db157610db161124d565b049050808310610dbf578092505b5050919050565b6000546001600160a01b031633146107ba5760405163118cdaa760e01b8152336004820152602401610208565b600080546001600160a01b038381166001600160a01b0319831681178455604051919092169283917f8be0079c531659141344cd1fd0a4f28419497f9722a3daafe3b4186f6b6457e09190a35050565b6001600160a01b0381168114610c4b57600080fd5b60008060408385031215610e6b57600080fd5b8235610e7681610e43565b91506020830135610e8681610e43565b809150509250929050565b60008060008060808587031215610ea757600080fd5b8435610eb281610e43565b93506020850135925060408501359150606085013560ff81168114610ed657600080fd5b939692955090935050565b60005b83811015610efc578181015183820152602001610ee4565b50506000910152565b60008151808452610f1d816020860160208601610ee1565b601f01601f19169290920160200192915050565b86815285602082015284604082015283606082015260c060808201526000610f5c60c0830185610f05565b82810360a0840152610f6e8185610f05565b9998505050505050505050565b600060208284031215610f8d57600080fd5b813561028781610e43565b848152836020820152608060408201526000610fb76080830185610f05565b8281036060840152610fc98185610f05565b979650505050505050565b600060208284031215610fe657600080fd5b815161028781610e43565b60006020828403121561100357600080fd5b5051919050565b634e487b7160e01b600052604160045260246000fd5b60006020828403121561103257600080fd5b815167ffffffffffffffff8082111561104a57600080fd5b818401915084601f83011261105e57600080fd5b8151818111156110705761107061100a565b604051601f8201601f19908116603f011681019083821181831017156110985761109861100a565b816040528281528760208487010111156110b157600080fd5b610fc9836020830160208801610ee1565b80516001600160701b03811681146110d957600080fd5b919050565b6000806000606084860312156110f357600080fd5b6110fc846110c2565b925061110a602085016110c2565b9150604084015163ffffffff8116811461112357600080fd5b809150509250925092565b634e487b7160e01b600052601160045260246000fd5b600181815b8085111561117f5781600019048211156111655761116561112e565b8085161561117257918102915b93841c9390800290611149565b509250929050565b60008261119657506001611224565b816111a357506000611224565b81600181146111b957600281146111c3576111df565b6001915050611224565b60ff8411156111d4576111d461112e565b50506001821b611224565b5060208310610133831016604e8410600b8410161715611202575081810a611224565b61120c8383611144565b80600019048211156112205761122061112e565b0290505b92915050565b60006102878383611187565b80820281158282048414176112245761122461112e565b634e487b7160e01b600052601260045260246000fd5b60008261128057634e487b7160e01b600052601260045260246000fd5b50049056fea2646970667358221220030ed909b56e41e08ae65c3ccd43514aa68e6613c3c352f4c8baa8d96057b14c64736f6c63430008190033","linkReferences":{}},"methodIdentifiers":{"DENOMINATOR()":"918f8674","getPoolAddress(address,address)":"3fa1e0c8","getPriceFromPoolTokens(address)":"cdef3407","getSwapableTokenAmount(address,uint256,uint256,uint8)":"4f86184c","owner()":"8da5cb5b","pancakeFactory()":"e0f1c9c5","pancakeRouter()":"c21ebd07","renounceOwnership()":"715018a6","setFactory(address)":"5bb47808","setRouter(address)":"c0d78655","transferOwnership(address)":"f2fde38b"},"id":24}